:100000000C942A000C943F000C943F000C943F0089
:100010000C943F000C943F000C943F000C943F0064
:100020000C943F000C943F000C943F000C943F0054
:100030000C943F000C943F000C943F000C943F0044
:100040000C943F000C943F000C943F000C943F0034
:100050000C943F0011241FBECFE5D8E0DEBFCDBF1A
:1000600013E0A0E6B0E0E6EFFAE102C005900D92E1
:10007000A835B107D9F70E94600C0C94790D0C9447
:100080000000EF92FF920F931F937B018C0120E001
:1000900030E040E05FE40E94110388238CF0C80147
:1000A000B70120E030E040E05FE40E94B9010E9427
:1000B00041039B01AC01205030404040504806C0F5
:1000C000C801B7010E9441039B01AC01B901CA01FB
:1000D0001F910F91FF90EF900895A0E0B0E0E3E74B
:1000E000F0E00C94390DDC012B01FA019C91923067
:1000F00008F439C1EB018881823008F433C19430AF
:1001000069F4843009F02FC111969C91119789816F
:10011000981709F428C1AEEFB1E025C1843009F485
:1001200021C18230A9F4923009F01DC19A01AD01BC
:1001300088E0EA010990AE01E90109929E0181502F
:10014000C1F7E201898111969C918923818308C1BD
:10015000923009F407C112962D903C901397EB0151
:100160008A819B811496AD90BD90CD90DC901797BD
:10017000EC80FD800E811F819101281B390BB90194
:1001800037FF04C066277727621B730B6032710547
:100190000CF061C0121613066CF537014801062EEB
:1001A00004C096948794779467940A94D2F721E0D8
:1001B00030E040E050E004C0220F331F441F551FC1
:1001C0006A95D2F721503040404050402E213F21C7
:1001D00040235123211531054105510521F021E02E
:1001E00030E040E050E079018A01E628F72808294C
:1001F00019293CC0232BD1F1260E371E35014601AB
:10020000062E04C096948794779467940A94D2F744
:1002100021E030E040E050E004C0220F331F441FD3
:10022000551F6A95D2F721503040404050402A2156
:100230003B214C215D21211531054105510521F05E
:1002400021E030E040E050E059016A01A628B728DB
:10025000C828D9280BC0821593052CF01C01AA24AC
:10026000BB24650103C0EE24FF24870111969C91F5
:10027000D20111968C91981709F445C0992339F051
:10028000A80197012A193B094C095D0906C0A6017E
:1002900095012E193F09400B510B57FD08C01182E3
:1002A0003382228224833583468357831DC081E0B5
:1002B00081833382228288279927DC01821B930B5A
:1002C000A40BB50B84839583A683B7830DC0220F3F
:1002D000331F441F551F24833583468357838281F0
:1002E000938101979383828324813581468157814D
:1002F000DA01C9010197A109B1098F5F9F4FAF4F83
:10030000BF4328F30BC0918333822282EA0CFB1C8B
:100310000C1D1D1DE482F5820683178383E0808314
:10032000248135814681578157FF1AC0C901AA2708
:1003300097FDA095BA2F81709070A070B0705695FF
:10034000479537952795822B932BA42BB52B848328
:100350009583A683B7838281938101969383828359
:10036000DF0101C0D201CD01CDB7DEB7E2E10C94CF
:10037000550DA0E2B0E0EFEBF1E00C94450D698380
:100380007A838B839C832D833E834F835887E9E058
:10039000EE2EF12CEC0EFD1ECE010196B7010E944F
:1003A00032058E010F5E1F4FCE010596B8010E94E7
:1003B00032058A8991E089278A8BC701B801AE018D
:1003C000475E5F4F0E946D000E945D04A096E6E0CC
:1003D0000C94610DA0E2B0E0E0EFF1E00C94450D6B
:1003E00069837A838B839C832D833E834F835887D5
:1003F000F9E0EF2EF12CEC0EFD1ECE010196B701B7
:100400000E9432058E010F5E1F4FCE010596B80186
:100410000E943205C701B801AE01475E5F4F0E94DE
:100420006D000E945D04A096E6E00C94610DA0E2D0
:10043000B0E0EDE1F2E00C94390D69837A838B83AF
:100440009C832D833E834F835887CE010196BE0146
:10045000675F7F4F0E943205CE010596BE016F5E39
:100460007F4F0E9432059985923088F089898230C9
:10047000C8F0943019F4823051F404C0843029F467
:10048000923081F48EEF91E0C6C0923049F420E0C2
:100490009A858A89981321E02A87CE010996BBC0E4
:1004A000823049F420E09A858A89981321E02A8BCA
:1004B000CE014196B0C02D843E844F8458886D880B
:1004C0007E888F88988CEE24FF248701AA24BB2481
:1004D000650140E050E060E070E0E0E0F0E0C10184
:1004E00081709070892BE9F0E60CF71C081D191D2E
:1004F0009A01AB012A0D3B1D4C1D5D1D80E090E073
:10050000A0E0B0E0E614F7040805190520F481E046
:1005100090E0A0E0B0E0BA01A901480F591F6A1F9E
:100520007B1FAA0CBB1CCC1CDD1C97FE08C081E005
:1005300090E0A0E0B0E0A82AB92ACA2ADB2A3196C6
:10054000E032F10549F0660C771C881C991C569422
:10055000479437942794C3CFFA85EA892B893C893D
:100560008B859C85280F391F2E5F3F4F17C0CA010E
:1005700081709070892B61F016950795F794E79438
:1005800080E090E0A0E0B0E8E82AF92A0A2B1B2BD3
:1005900076956795579547952F5F3F4F77FDE7CF46
:1005A0000CC0440F551F661F771F17FD4160EE0CEE
:1005B000FF1C001F111F21503040403090E05907B0
:1005C00090E0690790E4790760F32B8F3C8FDB01A3
:1005D000CA018F779070A070B07080349105A1052A
:1005E000B10561F447FD0AC0E114F10401051105EC
:1005F00029F0405C5F4F6F4F7F4F40781A8EFE1797
:1006000011F081E08A8F4D8F5E8F6F8F78A383E02A
:10061000898FCE0149960E945D04A096E2E10C9478
:10062000550DA8E1B0E0E7E1F3E00C94450D6983D6
:100630007A838B839C832D833E834F83588789E005
:10064000E82EF12CEC0EFD1ECE010196B7010E94A2
:1006500032058E010F5E1F4FCE010596B8010E9434
:1006600032058985823040F08989823028F0C701BF
:10067000B8010E94AA0501C08FEF6896E6E00C94CD
:10068000610DACE0B0E0E7E4F3E00C94490D698360
:100690007A838B839C83CE010196BE016B5F7F4F73
:1006A0000E9432058D81823061F1823050F18430B8
:1006B00021F48E81882351F12EC02F81388537FD9A
:1006C00020C06E812F3131051CF06623F9F023C064
:1006D0008EE190E0821B930B29853A854B855C85E2
:1006E00004C056954795379527958A95D2F7662386
:1006F000B1F050954095309521953F4F4F4F5F4F4A
:100700000EC020E030E040E050E009C02FEF3FEFA6
:100710004FEF5FE704C020E030E040E050E8B9016F
:10072000CA012C96E2E00C94650DA8E0B0E0EBE97C
:10073000F3E00C94410D7B018C016115710581057D
:10074000910519F482E0898360C083E089838EE19A
:10075000C82ED12CDC82CB82ED82FE820F831887DB
:10076000C801B7010E940E04FC013197F7FF3BC09E
:10077000222733272E1B3F0B57016801022E04C08E
:10078000D694C794B794A7940A94D2F740E050E067
:1007900060E070E081E090E0A0E0B0E004C0880F8D
:1007A000991FAA1FBB1F2A95D2F70197A109B1096A
:1007B0008E219F21A023B1230097A105B10521F02F
:1007C00041E050E060E070E04A295B296C297D2916
:1007D0004D835E836F8378878EE190E08E1B9F0B45
:1007E0009C838B8312C0309781F00E2E04C0EE0CD8
:1007F000FF1C001F111F0A94D2F7ED82FE820F83A7
:100800001887CE1ADF0ADC82CB821A82CE010196CB
:100810000E945D042896EAE00C945D0DEF92FF9231
:100820000F931F937B018C0180E0E81680E0F806AF
:1008300081E0080780E0180788F48FEFE816F104DC
:100840000105110531F028F088E090E0A0E0B0E06B
:1008500017C080E090E0A0E0B0E012C080E0E816B1
:1008600080E0F80680E0080781E0180728F088E1BA
:1008700090E0A0E0B0E004C080E190E0A0E0B0E053
:1008800020E230E040E050E0281B390B4A0B5B0BC4
:1008900004C016950795F794E7948A95D2F7F70167
:1008A000EA5FFD4F8081281B310941095109C901C7
:1008B0001F910F91FF90EF900895DF92EF92FF92BA
:1008C0000F931F93FC01E480F58006811781D1808E
:1008D0008081823048F480E090E0A0E1B0E0E82A36
:1008E000F92A0A2B1B2BA5C0843009F49FC0823043
:1008F00021F4EE24FF24870105C0E114F104010571
:10090000110519F4E0E0F0E096C0628173819FEF79
:10091000623879070CF05BC022E83FEF261B370BEB
:100920002A3131052CF020E030E040E050E02AC0D0
:10093000B801A701022E04C0769567955795479593
:100940000A94D2F781E090E0A0E0B0E004C0880F04
:10095000991FAA1FBB1F2A95D2F70197A109B109B8
:100960008E219F21A023B1230097A105B10521F07D
:1009700081E090E0A0E0B0E09A01AB01282B392B98
:100980004A2B5B2BDA01C9018F779070A070B07091
:1009900080349105A105B10539F427FF09C0205C19
:1009A0003F4F4F4F5F4F04C0215C3F4F4F4F5F4F52
:1009B000E0E0F0E02030A0E03A07A0E04A07A0E441
:1009C0005A0710F0E1E0F0E079018A0127C06038B1
:1009D000710564F5FB01E158FF4FD801C7018F771E
:1009E0009070A070B07080349105A105B10539F404
:1009F000E7FE0DC080E490E0A0E0B0E004C08FE32B
:100A000090E0A0E0B0E0E80EF91E0A1F1B1F17FFE0
:100A100005C016950795F794E794319687E01695EB
:100A20000795F794E7948A95D1F705C0EE24FF2443
:100A30008701EFEFF0E06E2F679566276795902F9F
:100A40009F77D794DD24D7948E2F8695492F462BF8
:100A5000582F5D29B701CA011F910F91FF90EF90A8
:100A6000DF900895FC01DB01408151812281622FDA
:100A70006F7770E0221F2227221F9381892F880F12
:100A8000822B282F30E0991F9927991F11969C934C
:100A9000119721153105A9F541155105610571051C
:100AA00011F482E037C082E89FEF13969C938E93F7
:100AB00012979A01AB0167E0220F331F441F551FA5
:100AC0006A95D1F783E08C930DC0220F331F441F2A
:100AD000551F12968D919C911397019713969C9395
:100AE0008E931297203080E0380780E0480780E43A
:100AF000580758F314962D933D934D935C93179795
:100B000008952F3F310579F44115510561057105AF
:100B100019F484E08C93089564FF03C081E08C9302
:100B200012C01C9210C02F57304013963C932E9346
:100B3000129783E08C9387E0440F551F661F771F41
:100B40008A95D1F7706414964D935D936D937C9361
:100B5000179708951F93DC01FB019C91923008F4D4
:100B600047C08081823008F443C0943051F411961C
:100B70001C91843099F58181682F70E0611B7109A7
:100B80003FC0843021F0923031F48230B9F181815C
:100B9000882389F12DC011961C9111978230F1F0B4
:100BA00081811817D9F412962D913C911397828167
:100BB00093818217930794F028173907BCF0149695
:100BC0008D919D910D90BC91A02D24813581468100
:100BD0005781281739074A075B0718F4112341F09A
:100BE0000AC082179307A407B50740F4112319F030
:100BF00061E070E005C06FEF7FEF02C060E070E081
:100C0000CB011F9108958AB188618AB980B5866841
:100C100080BD83E389B910BC08955D9BFECF8CB97C
:100C200008955F9BFECF8CB10895FC0104C05D9BCD
:100C3000FECF31968CB980818823C9F70895DC01F5
:100C400020E070E0615070400CC05F9BFECF8CB123
:100C50008D3061F08A3051F0FD01E20FF11D80838B
:100C60002F5F822F90E0861797077CF3A20FB11DAC
:100C70001C92089583B7806483BF83B7886083BF65
:100C800012BE089583B7846083BF089583B78061DF
:100C900083BF83B7806283BF089589B7816089BFAE
:100CA000089589B78E7F89BF089589B7826089BF0B
:100CB000089589B78D7F89BF089513BE089582BFB7
:100CC00008958CBF089585B5806485BD85B588601D
:100CD00085BD12BE089585B58E7F85BD85B58260C0
:100CE00085BD85B5846085BD089585B5806185BD68
:100CF00085B5806285BD089589B7806489BF0895F0
:100D000089B78F7B89BF089589B7806889BF0895A7
:100D100089B78F7789BF089515BC089584BD08955C
:100D20008CBF08958FB58E7F8FBD8FB582608FBDCC
:100D30008EB588608EBD8EB580618EBD089582307F
:100D400051F0833079F0882399F48FB58F7B8FBD74
:100D50008FB58F7705C08FB58F7B8FBD8FB58068BE
:100D60008FBD08958FB580648FBD8FB580688FBDAE
:100D70000895823051F0833079F0882399F48FB54B
:100D80008F7E8FBD8FB58F7D05C08FB58F7E8FBD58
:100D90008FB580628FBD08958FB580618FBD8FB58F
:100DA00080628FBD08958EB5887F8EBD8EB58260BE
:100DB0008EBD08958EB58E7F8EBD8EB58D7F8EBD16
:100DC0008EB58B7F8EBD089590E09DBD8CBD08953E
:100DD0009BBD8ABD089599BD88BD089597BD86BD08
:100DE0000895882319F48EB580648EBD089589B75F
:100DF000806289BF089589B78F7D89BF089589B7BB
:100E0000846089BF089589B78B7F89BF089589B7AA
:100E1000806189BF089589B78F7E89BF089589B79A
:100E2000886089BF089589B7877F89BF08956D9AC3
:100E30006C9A6B986B986898699A68986E9A0895FE
:100E40007699FECF8FB9779BFECF8FB108956E9ABA
:100E500008956E9808958FB780688FBF08958FB7F3
:100E60008F778FBF0895813041F0813018F0823044
:100E700059F407C08BB7806402C08BB780688BBF02
:100E800008958BB780628BBF0895813041F0813027
:100E900018F0823059F407C08BB78F7B02C08BB734
:100EA0008F778BBF08958BB78F7D8BBF089581306F
:100EB00009F1813020F0823009F044C037C0613040
:100EC00051F0613028F0623061F06330D9F50CC028
:100ED00085B78E7F02C085B7816085BF85B78D7F5E
:100EE00023C085B78E7F02C085B7816085BF85B777
:100EF00082601AC0613051F0613028F0623061F0D8
:100F0000633001F50CC085B78B7F02C085B7846064
:100F100085BF85B7877F08C085B78B7F02C085B73F
:100F2000846085BF85B7886085BF0895623019F0F9
:100F3000633041F404C084B78F7B84BF089584B7C5
:100F4000806484BF0895E199FECF8EBB9FBB6DBBCB
:100F5000E29AE19A0895E199FECF8EBB9FBBE09A99
:100F60008DB30895CF92DF92EF92FF920F931F936C
:100F7000CF93DF936C017B018A01C0E0D0E00AC00F
:100F8000F601EC0FFD1FC7018C0F9D1F60810E94B1
:100F9000A3072196C017D10798F3DF91CF911F9136
:100FA0000F91FF90EF90DF90CF900895CF92DF9256
:100FB000EF92FF920F931F93CF93DF936C017B010E
:100FC0008A01C0E0D0E00AC0C7018C0F9D1F0E94BB
:100FD000AB07F601EC0FFD1F80832196C017D107E8
:100FE00098F3DF91CF911F910F91FF90EF90DF90D9
:100FF000CF9008954423C9F1413009F06EC081308B
:1010000099F0813030F08230D1F0833009F065C042
:1010100021C02AB381E090E002C0880F991F6A9531
:10102000E2F7282B2ABB089527B381E090E002C0A5
:10103000880F991F6A95E2F7282B27BB089524B3E0
:1010400081E090E002C0880F991F6A95E2F7282B93
:1010500024BB089521B381E090E002C0880F991F5E
:101060006A95E2F7282B21BB0895813099F08130F1
:1010700028F08230D9F0833081F524C02AB381E092
:1010800090E002C0880F991F6A95E2F7809582234D
:101090008ABB089527B381E090E002C0880F991FB2
:1010A0006A95E2F78095822387BB089524B381E097
:1010B00090E002C0880F991F6A95E2F7809582231D
:1010C00084BB089521B381E090E002C0880F991F8E
:1010D0006A95E2F78095822381BB08954423C9F184
:1010E000413009F06EC0813099F0813030F08230AB
:1010F000D1F0833009F065C021C02BB381E090E0CE
:1011000002C0880F991F6A95E2F7282B2BBB089520
:1011100028B381E090E002C0880F991F6A95E2F73A
:10112000282B28BB089525B381E090E002C0880FEA
:10113000991F6A95E2F7282B25BB089522B381E019
:1011400090E002C0880F991F6A95E2F7282B22BB16
:101150000895813099F0813028F08230D9F08330C1
:1011600081F524C02BB381E090E002C0880F991F65
:101170006A95E2F7809582238BBB089528B381E0BE
:1011800090E002C0880F991F6A95E2F7809582234C
:1011900088BB089525B381E090E002C0880F991FB5
:1011A0006A95E2F78095822385BB089522B381E09A
:1011B00090E002C0880F991F6A95E2F7809582231C
:1011C00082BB0895813091F0813028F08230C9F0DF
:1011D000833061F521C02BB381E090E002C0880F1D
:1011E000991F6A95E2F728272BBB089528B381E061
:1011F00090E002C0880F991F6A95E2F7282728BB64
:10120000089525B381E090E002C0880F991F6A9588
:10121000E2F7282725BB089522B381E090E002C0C1
:10122000880F991F6A95E2F7282722BB0895662345
:10123000B9F0613029F5813051F0813028F08230E9
:1012400049F08330E9F409C08FEF8ABB08958FEF2E
:1012500087BB08958FEF84BB08958FEF81BB0895FE
:10126000813049F0813028F0823039F0833041F408
:1012700006C01ABA089517BA089514BA089511BA93
:101280000895813049F0813028F0823039F0833080
:1012900041F406C06BBB089568BB089565BB089513
:1012A00062BB0895813051F0813030F0823041F0DE
:1012B000833079F080E0089589B303C086B301C01C
:1012C00083B390E002C0959587956A95E2F78170A7
:1012D000089580B390E002C0959587956A95E2F7EE
:1012E0008170089541E00E946E0808953E9A3F98EB
:1012F000309A329A379A089597B1907E97B997B1FC
:10130000982B97B9369A349BFECF349A24B135B1D5
:10131000C90108950E947C099C01220F331F220FEE
:10132000331F280F391F832F869586950895B89A05
:101330000895C09A0895C098089581B392B38460C7
:1013400092BB81BB089582B393B3846093BB82BB8D
:10135000089582B393B38B7F93BB82BB08950F93A1
:101360001F93182F81E061E041E00E946E0881E048
:1013700062E040E00E946E0882E0612F0E94410915
:1013800081E063E041E00E946E0800ED17E0C801D3
:101390000197F1F781E063E040E00E946E08C80128
:1013A0000197F1F71F910F910895CF93DF93EC010F
:1013B00002C00E94AF0989918823D9F7DF91CF91AC
:1013C00008956F927F928F929F92AF92BF92CF9229
:1013D000DF92EF92FF920F931F93DF93CF93CDB7DE
:1013E000DEB72A970FB6F894DEBF0FBECDBF6B01F4
:1013F0007C0197FD03C0662477240BC0F094E09431
:10140000D094C094C11CD11CE11CF11C91E0692E48
:10141000712CAA24BB244E010894811C911C8401C8
:101420000A0D1B1DC701B6012AE030E040E050E084
:101430000E94FC0C605DF80160830894A11CB11C43
:10144000C701B6012AE030E040E050E00E94FC0C09
:10145000C901DA016C017D011C141D041E041F0466
:10146000F4F2F1E06F16710441F48A0C9B1C8DE2DA
:10147000F40180830894A11CB11C95013695279531
:10148000FE013196DE01AA0DBB1DAF012E0F3F1FDD
:1014900005C090818C9181939C931197E217F3077B
:1014A000C1F7A40EB51EF5011082CA010E94D5092C
:1014B0002A960FB6F894DEBF0FBECDBFCF91DF9155
:1014C0001F910F91FF90EF90DF90CF90BF90AF9062
:1014D0009F908F907F906F900895CF92DF92EF92C0
:1014E000FF920F931F93CF93DF937B018C01EA014F
:1014F0000E9441006B0180E090E00E9495039B01F7
:10150000AC01C801B7010E94B9017B018C010BC07D
:10151000C801B70120E030E040E251E40E94170228
:101520007B018C012197209799F7B60180E090E02C
:101530000E94E1098EE20E94AF09C801B7010E9432
:1015400041030E94E109DF91CF911F910F91FF901C
:10155000EF90DF90CF9008950F931F93182F81E0A5
:1015600061E040E00E946E0881E062E040E00E949D
:101570006E0882E0612F0E94410981E063E041E052
:101580000E946E0800ED17E0C8010197F1F781E0B5
:1015900063E040E00E946E08C8010197F1F71F91D7
:1015A0000F910895813029F4862F80580E94AC0A4B
:1015B0000895823021F4862F80540E94AC0A089549
:1015C00081E00E94AC0A80E797E10197F1F7089566
:1015D0000F931F93082F0E94E00A80E690E00E947C
:1015E000D50910E0C801C0960E94D5091F910F913E
:1015F00008951F93182F0E94E00A133091F01430C1
:1016000028F4113041F01230B1F408C0143061F008
:10161000153089F40CC082E790E00BC084E890E0BC
:1016200008C08DE990E005C084EB90E002C080EC3A
:1016300090E00E94D5091F9108950F931F9382E0B7
:1016400061E00E94170981E061E041E00E94FA0731
:1016500081E062E041E00E94FA0781E063E041E05E
:101660000E94FA0780E69AEE0197F1F788E30E945C
:10167000AC0A00ED17E0C8010197F1F78FE00E9476
:10168000AC0AC8010197F1F781E00E94AC0A80E73B
:1016900097E10197F1F786E00E94AC0A1F910F9144
:1016A00008957F928F929F92AF92BF92CF92DF92D6
:1016B000EF92FF920F931F93CF93DF9336E0832E29
:1016C00033E0932E2AE0A22E23E0B22E94E5792E69
:1016D000CC24DD24F4018081F501608140E00E948A
:1016E0006E08CEE0D3E002E113E086E1E82E83E06D
:1016F000F82EEC0CFD1C8881F80160810E945209D3
:10170000882311F4F70170808881F80160810E94BC
:1017100052098823C9F321960F5F1F4F84E090E0A0
:10172000E80EF91E93E0C231D90729F7F40181913F
:101730004F01F50161915F0141E00E946E0808943C
:10174000C11CD11CF4E0CF16D10421F6872DDF9106
:10175000CF911F910F91FF90EF90DF90CF90BF90AE
:10176000AF909F908F907F900895CF93DF93EC017F
:101770000E94510B8E3439F42196C630D10538F0D1
:10178000C1E0D0E004C0833411F4CFEFD0E0CE014B
:10179000DF91CF91089581E064E041E00E94FA0773
:1017A00081E065E041E00E94FA0781E066E041E007
:1017B0000E94FA0781E067E041E00E94FA0783E0B7
:1017C00063E040E00E94FA0783E064E040E00E94AA
:1017D000FA0783E065E040E00E94FA0783E066E0F4
:1017E00040E00E94FA0781E064E041E00E946E0858
:1017F00081E065E041E00E946E0881E066E041E042
:101800000E946E0881E067E041E00E946E0883E07C
:1018100063E041E00E946E0883E064E041E00E94E2
:101820006E0883E065E041E00E946E0883E066E0B8
:1018300041E00E946E08089581E061E00E94E208A4
:10184000089581E061E040E00E946E08089581E023
:1018500061E041E00E946E08089581E061E041E0AE
:101860000E94FA0708950F931F938B01682F70E071
:10187000660F771F660F771FC80144E050E00E9493
:10188000D607F80114821F910F9108950F931F93AB
:10189000CF93DF93C6E2D3E000E010E0CE01B801C1
:1018A00044E050E00E94B20725960C5F1F4F83E092
:1018B000C835D80799F7DF91CF911F910F910895FF
:1018C000AF92BF92CF92DF92EF92FF920F931F934E
:1018D000DF93CF93CDB7DEB72A970FB6F894DEBF6C
:1018E0000FBECDBF0E9403060E949D090E9497096A
:1018F0000E942D0C0E94460C7E010894E11CF11CF4
:1019000026E0A22EB12CAC0EBD1E98ECC92ED12C17
:1019100081ED90E00E9415060E941106082F0153E8
:101920000A3018F088EE90E04BC013E08AEF90E0A8
:101930000E941506C70165E00E941F06802FB501B1
:101940000E94330C8BE091E00E941506C7010E94B3
:10195000150680E291E00E941506C701B5010E94BC
:10196000700D009781F582E291E00E9415060E94B9
:10197000990983E391E00E94150680E593ECF60156
:101980003197F1F70197D9F70E949B0988E491E01C
:101990000E9415068FE591E00E9415060E9411062F
:1019A000813329F40E94A3098EE891E009C08033B5
:1019B00029F40E94A9098FE991E002C081EB91E02E
:1019C0000E941506A5CF83ED91E00E9415061150E7
:1019D00009F0ACCF08C0F6013197F1F70197D9F7BC
:1019E0000E94210C95CF83EE91E00E9415060E9483
:1019F000270C8FEF9FEFEFCF97FB092E05260ED018
:101A000057FD04D014D00AD0001C38F450954095EE
:101A1000309521953F4F4F4F5F4F0895F6F79095C2
:101A20008095709561957F4F8F4F9F4F0895A1E2EC
:101A30001A2EAA1BBB1BFD010DC0AA1FBB1FEE1F48
:101A4000FF1FA217B307E407F50720F0A21BB30B93
:101A5000E40BF50B661F771F881F991F1A9469F70F
:101A600060957095809590959B01AC01BD01CF016B
:101A700008952F923F924F925F926F927F928F9232
:101A80009F92AF92BF92CF92DF92EF92FF920F930D
:101A90001F93CF93DF93CDB7DEB7CA1BDB0B0FB617
:101AA000F894DEBF0FBECDBF09942A8839884888D4
:101AB0005F846E847D848C849B84AA84B984C8846A
:101AC000DF80EE80FD800C811B81AA81B981CE0F61
:101AD000D11D0FB6F894DEBF0FBECDBFED01089546
:101AE000FB01DC018D91019080190110D9F3990B54
:061AF0000895F894FFCFF9
:101AF60053656C6563746564204F7074696F6E3AE4
:101B06002000312920436F6E74726F6C2032204C96
:101B160045447300322920436F6E74726F6C204CFB
:101B2600454420696E74656E7369747900332920A3
:101B3600436F6E74726F6C20736572766F206D6F73
:101B4600746F72003429204443206D6F746F7200E5
:101B5600352920506F74656E74696F6D6574657292
:101B660000456E746572207573657220494420289D
:101B7600312D3130293A2000496E76616C69642036
:101B8600557365722049442E0A00456E74657220AD
:101B960070617373776F72643A20000A52656365E9
:101BA600697665642070617373776F72643A20009A
:101BB6000A00416363657373206772616E746564BE
:101BC6002E0A00536F6C656E6F69642061637469D9
:101BD60076617465642E0A00536F6C656E6F696476
:101BE6002064656163746976617465642E0A0050C9
:101BF60072657373203120746F207475726E206F56
:101C06006E204C45442C206F72203020746F207457
:101C160075726E206F6666204C45443A20000A4C69
:101C26004544207475726E6564206F6E2E0A000A34
:101C36004C4544207475726E6564206F66662E0A84
:101C4600000A496E76616C696420696E7075742E3F
:101C5600204E6F20616374696F6E2074616B656ED0
:101C66002E0A004163636573732064656E6965645B
:101C76002E0A00546F6F206D616E79206174746551
:101C86006D7074732E20416C61726D210A00000024
:101C96000000000000000001020203030303040425
:101CA60004040404040405050505050505050505E4
:101CB60005050505050506060606060606060606C4
:101CC60006060606060606060606060606060606AE
:101CD6000606060606060707070707070707070794
:101CE600070707070707070707070707070707077E
:101CF600070707070707070707070707070707076E
:101D0600070707070707070707070707070707075D
:101D16000707070707070808080808080808080843
:101D2600080808080808080808080808080808082D
:101D3600080808080808080808080808080808081D
:101D4600080808080808080808080808080808080D
:101D560008080808080808080808080808080808FD
:101D660008080808080808080808080808080808ED
:101D760008080808080808080808080808080808DD
:101D860008080808080808080808080808080808CD
:101D960008080808080801010101040506070303ED
:101DA6000303030405063132333435364E432D2DF5
:101DB6002D2D2D2D2D2D3132333400323334350077
:101DC6003334353600343536370035363738003655
:101DD6003738390037383930003839303100393042
:081DE6003132003031323300CC
:00000001FF
